:100000000C942A000C943C000C943C000C943C0092
:100010000C9494020C943C000C943C000C9446020A
:100020000C946D020C943C000C941F020C943C0048
:100030000C943C000C943C000C943C000C943C0050
:100040000C943C000C943C000C943C000C943C0040
:100050000C943C0011241FBECFE5D8E0DEBFCDBF1D
:1000600010E0A0E6B0E001C01D92AA36B107E1F7AA
:100070000E9491010C9407040C940000813049F017
:10008000813028F0823039F0833041F406C06ABBF9
:10009000089567BB089564BB089561BB08958130DE
:1000A00049F0813028F0823039F0833041F406C0C5
:1000B0006BBB089568BB089565BB089562BB089546
:1000C000813051F0813030F0823041F0833041F0A6
:1000D00080E0089589B3089586B3089583B30895A1
:1000E00080B308951F93162F0E94600090E002C015
:1000F000959587951A95E2F781701F910895813043
:1001000049F1813038F0823009F444C0833009F07D
:100110007EC05FC0413069F4EBE3F0E0208181E014
:1001200090E002C0880F991F6A95E2F7282B208380
:100130000895442309F06BC0EBE3F0E0208181E0F7
:1001400090E002C0880F991F6A95E2F7809582239C
:1001500080830895413069F4E8E3F0E0208181E094
:1001600090E002C0880F991F6A95E2F7282B208340
:100170000895442309F04BC0E8E3F0E0208181E0DA
:1001800090E002C0880F991F6A95E2F7809582235C
:1001900080830895413069F4E5E3F0E0208181E057
:1001A00090E002C0880F991F6A95E2F7282B208300
:1001B0000895442361F5E5E3F0E0208181E090E0DB
:1001C00002C0880F991F6A95E2F780958223808389
:1001D0000895413069F4E2E3F0E0208181E090E0AD
:1001E00002C0880F991F6A95E2F7282B2083089593
:1001F000442369F4E2E3F0E0208181E090E002C072
:10020000880F991F6A95E2F780958223808308956D
:10021000813049F1813038F0823009F444C08330B4
:1002200009F07EC05FC0413069F4EAE3F0E020816C
:1002300081E090E002C0880F991F6A95E2F7282BB1
:1002400020830895442309F06BC0EAE3F0E02081A5
:1002500081E090E002C0880F991F6A95E2F78095CF
:10026000822380830895413069F4E7E3F0E0208140
:1002700081E090E002C0880F991F6A95E2F7282B71
:1002800020830895442309F04BC0E7E3F0E0208188
:1002900081E090E002C0880F991F6A95E2F780958F
:1002A000822380830895413069F4E4E3F0E0208103
:1002B00081E090E002C0880F991F6A95E2F7282B31
:1002C00020830895442361F5E4E3F0E0208181E098
:1002D00090E002C0880F991F6A95E2F7809582230B
:1002E00080830895413069F4E1E3F0E0208181E00A
:1002F00090E002C0880F991F6A95E2F7282B2083AF
:100300000895442369F4E1E3F0E0208181E090E086
:1003100002C0880F991F6A95E2F780958223808337
:100320000895CF92DF92EF92FF920F931F93CF9396
:10033000DF930E940A0380E06FEF0E943E0080E09E
:1003400060E00E944F0081E060E040E00E94080110
:1003500081E061E041E00E94080110E3C0E0D0E0EC
:100360000F2EFBE2EF2EFF24F02D0F2EFCE2CF2EFE
:10037000DD24F02D01E381E060E00E947200813015
:1003800039F4103329F461E041E00E947F0015C088
:1003900081E060E00E947200813051F4113341F439
:1003A000CB30D10528F461E041E00E947F0005C018
:1003B00081E061E040E00E947F00F70180818823B6
:1003C00014F4F6011081113321F40E943F03EC0173
:1003D00018C0123389F0133328F4103341F011336D
:1003E00051F60FC01333E1F0143329F61EC080E03C
:1003F00060E00E944F00BFCF80E065E00E944F00A8
:10040000BACFCB30D10530F080E06AE00E944F00D7
:10041000102FB1CF80E060E00E944F00102FABCFD3
:1004200080E068E00E944F00A6CF80E062E00E947A
:100430004F00A1CF909369008093680008951F92A8
:100440000F920FB60F9211242F933F934F935F9308
:100450006F937F938F939F93AF93BF93EF93FF938C
:10046000E0916800F09169000995FF91EF91BF91CB
:10047000AF919F918F917F916F915F914F913F913C
:100480002F910F900FBE0F901F9018951F920F92F3
:100490000FB60F9211242F933F934F935F936F9357
:1004A0007F938F939F93AF93BF93EF93FF93E091CD
:1004B0006200F09163000995FF91EF91BF91AF91B8
:1004C0009F918F917F916F915F914F913F912F916C
:1004D0000F900FBE0F901F9018951F920F920FB69E
:1004E0000F9211242F933F934F935F936F937F93BA
:1004F0008F939F93AF93BF93EF93FF93E09164002B
:10050000F09165000995FF91EF91BF91AF919F9197
:100510008F917F916F915F914F913F912F910F90AC
:100520000FBE0F901F9018951F920F920FB60F924B
:1005300011242F933F934F935F936F937F938F93E8
:100540009F93AF93BF93EF93FF93E0916600F09179
:1005500067000995FF91EF91BF91AF919F918F91A6
:100560007F916F915F914F913F912F910F900FBEAF
:100570000F901F9018959C01E3E5F0E08081886062
:10058000808380818F7B808320343105F1F021349A
:10059000310538F42130310561F02830310531F56D
:1005A0000EC081E020303807B1F020503440F1F423
:1005B00018C0E3E5F0E080818160808317C0E3E547
:1005C000F0E080818260808311C0E3E5F0E080810B
:1005D000836080830BC0E3E5F0E0808184608083EA
:1005E00005C0E3E5F0E08081856080836CBF442333
:1005F00059F0EFE5F0E0808180688083E9E5F0E084
:100600008081826080830895E9E5F0E080818D7FBC
:10061000808308950F931F9300E410E0F801108287
:1006200087E689B9EBE2F0E080818260808383E035
:1006300061E041E00E94080183E060E040E00E9448
:10064000080186E8F8018083EAE2F0E080818061B9
:10065000808380818860808380818F7B808380819C
:100660008F7780831F910F91089580916000909102
:1006700061000196909361008093600008951F933C
:1006800081E062E041E00E94080183E062E040E036
:100690000E94080183E062E041E00E947F0081E067
:1006A00090E06FEF41E00E94BB0285E393E00E947F
:1006B0001A0281E062E041E00E947F0013E0812F96
:1006C0008A95F1F781E062E040E00E947F0012BE6F
:1006D00015BFEAE5F0E0808186FFFDCFEAE5F0E0B6
:1006E00080818064808312BE10926100109260004D
:1006F00082E085BF808186FFFDCFEAE5F0E0808162
:1007000080648083A2B7E0916000F091610028EBE3
:100710003BE049E150E0CA010197F1F72150304038
:10072000D1F77E2F66276E1B7F0B6A0F711D7695A2
:10073000679580E090E02CEF35E840E050E00E94C3
:10074000AB0320E032E14AE750E00E94CA03822F67
:10075000932F1F910895629FD001739FF001829F94
:10076000E00DF11D649FE00DF11D929FF00D839F40
:10077000F00D749FF00D659FF00D9927729FB00DDD
:10078000E11DF91F639FB00DE11DF91FBD01CF01F0
:100790001124089597FB092E05260ED057FD04D08D
:1007A00014D00AD0001C38F450954095309521950E
:1007B0003F4F4F4F5F4F0895F6F790958095709596
:1007C00061957F4F8F4F9F4F0895A1E21A2EAA1B6C
:1007D000BB1BFD010DC0AA1FBB1FEE1FFF1FA217F1
:1007E000B307E407F50720F0A21BB30BE40BF50BEE
:1007F000661F771F881F991F1A9469F76095709577
:10080000809590959B01AC01BD01CF010895F894AE
:02081000FFCF18
:00000001FF
